{
  "contractName": "BrownieNft",
  "abi": [
    {
      "inputs": [],
      "stateMutability": "nonpayable",
      "type": "constructor"
    },
    {
      "anonymous": false,
      "inputs": [
        {
          "indexed": true,
          "internalType": "address",
          "name": "owner",
          "type": "address"
        },
        {
          "indexed": true,
          "internalType": "address",
          "name": "approved",
          "type": "address"
        },
        {
          "indexed": true,
          "internalType": "uint256",
          "name": "tokenId",
          "type": "uint256"
        }
      ],
      "name": "Approval",
      "type": "event"
    },
    {
      "anonymous": false,
      "inputs": [
        {
          "indexed": true,
          "internalType": "address",
          "name": "owner",
          "type": "address"
        },
        {
          "indexed": true,
          "internalType": "address",
          "name": "operator",
          "type": "address"
        },
        {
          "indexed": false,
          "internalType": "bool",
          "name": "approved",
          "type": "bool"
        }
      ],
      "name": "ApprovalForAll",
      "type": "event"
    },
    {
      "anonymous": false,
      "inputs": [
        {
          "indexed": true,
          "internalType": "address",
          "name": "previousOwner",
          "type": "address"
        },
        {
          "indexed": true,
          "internalType": "address",
          "name": "newOwner",
          "type": "address"
        }
      ],
      "name": "OwnershipTransferred",
      "type": "event"
    },
    {
      "anonymous": false,
      "inputs": [
        {
          "indexed": true,
          "internalType": "address",
          "name": "from",
          "type": "address"
        },
        {
          "indexed": true,
          "internalType": "address",
          "name": "to",
          "type": "address"
        },
        {
          "indexed": true,
          "internalType": "uint256",
          "name": "tokenId",
          "type": "uint256"
        }
      ],
      "name": "Transfer",
      "type": "event"
    },
    {
      "inputs": [
        {
          "internalType": "address",
          "name": "to",
          "type": "address"
        },
        {
          "internalType": "uint256",
          "name": "tokenId",
          "type": "uint256"
        }
      ],
      "name": "approve",
      "outputs": [],
      "stateMutability": "nonpayable",
      "type": "function"
    },
    {
      "inputs": [
        {
          "internalType": "address",
          "name": "owner",
          "type": "address"
        }
      ],
      "name": "balanceOf",
      "outputs": [
        {
          "internalType": "uint256",
          "name": "",
          "type": "uint256"
        }
      ],
      "stateMutability": "view",
      "type": "function"
    },
    {
      "inputs": [],
      "name": "fileExtention",
      "outputs": [
        {
          "internalType": "string",
          "name": "",
          "type": "string"
        }
      ],
      "stateMutability": "view",
      "type": "function"
    },
    {
      "inputs": [
        {
          "internalType": "uint256",
          "name": "tokenId",
          "type": "uint256"
        }
      ],
      "name": "getApproved",
      "outputs": [
        {
          "internalType": "address",
          "name": "",
          "type": "address"
        }
      ],
      "stateMutability": "view",
      "type": "function"
    },
    {
      "inputs": [
        {
          "internalType": "address",
          "name": "owner",
          "type": "address"
        },
        {
          "internalType": "address",
          "name": "operator",
          "type": "address"
        }
      ],
      "name": "isApprovedForAll",
      "outputs": [
        {
          "internalType": "bool",
          "name": "",
          "type": "bool"
        }
      ],
      "stateMutability": "view",
      "type": "function"
    },
    {
      "inputs": [],
      "name": "name",
      "outputs": [
        {
          "internalType": "string",
          "name": "",
          "type": "string"
        }
      ],
      "stateMutability": "view",
      "type": "function"
    },
    {
      "inputs": [],
      "name": "owner",
      "outputs": [
        {
          "internalType": "address",
          "name": "",
          "type": "address"
        }
      ],
      "stateMutability": "view",
      "type": "function"
    },
    {
      "inputs": [
        {
          "internalType": "uint256",
          "name": "tokenId",
          "type": "uint256"
        }
      ],
      "name": "ownerOf",
      "outputs": [
        {
          "internalType": "address",
          "name": "",
          "type": "address"
        }
      ],
      "stateMutability": "view",
      "type": "function"
    },
    {
      "inputs": [],
      "name": "renounceOwnership",
      "outputs": [],
      "stateMutability": "nonpayable",
      "type": "function"
    },
    {
      "inputs": [
        {
          "internalType": "address",
          "name": "from",
          "type": "address"
        },
        {
          "internalType": "address",
          "name": "to",
          "type": "address"
        },
        {
          "internalType": "uint256",
          "name": "tokenId",
          "type": "uint256"
        }
      ],
      "name": "safeTransferFrom",
      "outputs": [],
      "stateMutability": "nonpayable",
      "type": "function"
    },
    {
      "inputs": [
        {
          "internalType": "address",
          "name": "from",
          "type": "address"
        },
        {
          "internalType": "address",
          "name": "to",
          "type": "address"
        },
        {
          "internalType": "uint256",
          "name": "tokenId",
          "type": "uint256"
        },
        {
          "internalType": "bytes",
          "name": "_data",
          "type": "bytes"
        }
      ],
      "name": "safeTransferFrom",
      "outputs": [],
      "stateMutability": "nonpayable",
      "type": "function"
    },
    {
      "inputs": [
        {
          "internalType": "address",
          "name": "operator",
          "type": "address"
        },
        {
          "internalType": "bool",
          "name": "approved",
          "type": "bool"
        }
      ],
      "name": "setApprovalForAll",
      "outputs": [],
      "stateMutability": "nonpayable",
      "type": "function"
    },
    {
      "inputs": [
        {
          "internalType": "bytes4",
          "name": "interfaceId",
          "type": "bytes4"
        }
      ],
      "name": "supportsInterface",
      "outputs": [
        {
          "internalType": "bool",
          "name": "",
          "type": "bool"
        }
      ],
      "stateMutability": "view",
      "type": "function"
    },
    {
      "inputs": [],
      "name": "symbol",
      "outputs": [
        {
          "internalType": "string",
          "name": "",
          "type": "string"
        }
      ],
      "stateMutability": "view",
      "type": "function"
    },
    {
      "inputs": [
        {
          "internalType": "address",
          "name": "from",
          "type": "address"
        },
        {
          "internalType": "address",
          "name": "to",
          "type": "address"
        },
        {
          "internalType": "uint256",
          "name": "tokenId",
          "type": "uint256"
        }
      ],
      "name": "transferFrom",
      "outputs": [],
      "stateMutability": "nonpayable",
      "type": "function"
    },
    {
      "inputs": [
        {
          "internalType": "address",
          "name": "newOwner",
          "type": "address"
        }
      ],
      "name": "transferOwnership",
      "outputs": [],
      "stateMutability": "nonpayable",
      "type": "function"
    },
    {
      "inputs": [
        {
          "internalType": "address",
          "name": "to",
          "type": "address"
        }
      ],
      "name": "safeMint",
      "outputs": [],
      "stateMutability": "nonpayable",
      "type": "function"
    },
    {
      "inputs": [
        {
          "internalType": "uint256",
          "name": "tokenId",
          "type": "uint256"
        }
      ],
      "name": "tokenURI",
      "outputs": [
        {
          "internalType": "string",
          "name": "",
          "type": "string"
        }
      ],
      "stateMutability": "view",
      "type": "function"
    },
    {
      "inputs": [
        {
          "internalType": "address",
          "name": "to",
          "type": "address"
        },
        {
          "internalType": "uint256",
          "name": "amount",
          "type": "uint256"
        }
      ],
      "name": "batchMint",
      "outputs": [],
      "stateMutability": "payable",
      "type": "function"
    },
    {
      "inputs": [
        {
          "internalType": "uint256",
          "name": "_balance",
          "type": "uint256"
        }
      ],
      "name": "withdrawKLAY",
      "outputs": [],
      "stateMutability": "payable",
      "type": "function"
    }
  ],
  "bytecode": "0x60806040526040518060400160405280600581526020017f2e6a736f6e0000000000000000000000000000000000000000000000000000008152506007908051906020019062000051929190620001f4565b503480156200005f57600080fd5b506040518060400160405280600a81526020017f42726f776e69654e6674000000000000000000000000000000000000000000008152506040518060400160405280600381526020017f42465400000000000000000000000000000000000000000000000000000000008152508160009080519060200190620000e4929190620001f4565b508060019080519060200190620000fd929190620001f4565b50505062000120620001146200012660201b60201c565b6200012e60201b60201c565b62000308565b600033905090565b6000600660009054906101000a900473ffffffffffffffffffffffffffffffffffffffff16905081600660006101000a81548173ffffffffffffffffffffffffffffffffffffffff021916908373ffffffffffffffffffffffffffffffffffffffff1602179055508173ffffffffffffffffffffffffffffffffffffffff168173ffffffffffffffffffffffffffffffffffffffff167f8be0079c531659141344cd1fd0a4f28419497f9722a3daafe3b4186f6b6457e060405160405180910390a35050565b8280546200020290620002d3565b90600052602060002090601f01602090048101928262000226576000855562000272565b82601f106200024157805160ff191683800117855562000272565b8280016001018555821562000272579182015b828111156200027157825182559160200191906001019062000254565b5b50905062000281919062000285565b5090565b5b80821115620002a057600081600090555060010162000286565b5090565b7f4e487b7100000000000000000000000000000000000000000000000000000000600052602260045260246000fd5b60006002820490506001821680620002ec57607f821691505b602082108103620003025762000301620002a4565b5b50919050565b6130fa80620003186000396000f3fe60806040526004361061011f5760003560e01c80637110d264116100a0578063a22cb46511610064578063a22cb465146103b7578063b88d4fde146103e0578063c87b56dd14610409578063e985e9c514610446578063f2fde38b146104835761011f565b80637110d26414610303578063715018a61461031f5780638d716b22146103365780638da5cb5b1461036157806395d89b411461038c5761011f565b806340d097c3116100e757806340d097c31461021b57806342842e0e1461024457806343508b051461026d5780636352211e1461028957806370a08231146102c65761011f565b806301ffc9a71461012457806306fdde0314610161578063081812fc1461018c578063095ea7b3146101c957806323b872dd146101f2575b600080fd5b34801561013057600080fd5b5061014b60048036038101906101469190611d78565b6104ac565b6040516101589190611dc0565b60405180910390f35b34801561016d57600080fd5b5061017661058e565b6040516101839190611e74565b60405180910390f35b34801561019857600080fd5b506101b360048036038101906101ae9190611ecc565b610620565b6040516101c09190611f3a565b60405180910390f35b3480156101d557600080fd5b506101f060048036038101906101eb9190611f81565b6106a5565b005b3480156101fe57600080fd5b5061021960048036038101906102149190611fc1565b6107bc565b005b34801561022757600080fd5b50610242600480360381019061023d9190612014565b61081c565b005b34801561025057600080fd5b5061026b60048036038101906102669190611fc1565b610842565b005b61028760048036038101906102829190611f81565b610862565b005b34801561029557600080fd5b506102b060048036038101906102ab9190611ecc565b6108e3565b6040516102bd9190611f3a565b60405180910390f35b3480156102d257600080fd5b506102ed60048036038101906102e89190612014565b610994565b6040516102fa9190612050565b60405180910390f35b61031d60048036038101906103189190611ecc565b610a4b565b005b34801561032b57600080fd5b50610334610b7a565b005b34801561034257600080fd5b5061034b610c02565b6040516103589190611e74565b60405180910390f35b34801561036d57600080fd5b50610376610c90565b6040516103839190611f3a565b60405180910390f35b34801561039857600080fd5b506103a1610cba565b6040516103ae9190611e74565b60405180910390f35b3480156103c357600080fd5b506103de60048036038101906103d99190612097565b610d4c565b005b3480156103ec57600080fd5b506104076004803603810190610402919061220c565b610d62565b005b34801561041557600080fd5b50610430600480360381019061042b9190611ecc565b610dc4565b60405161043d9190611e74565b60405180910390f35b34801561045257600080fd5b5061046d6004803603810190610468919061228f565b610e6e565b60405161047a9190611dc0565b60405180910390f35b34801561048f57600080fd5b506104aa60048036038101906104a59190612014565b610f02565b005b60007f80ac58cd000000000000000000000000000000000000000000000000000000007bffffffffffffffffffffffffffffffffffffffffffffffffffffffff1916827bffffffffffffffffffffffffffffffffffffffffffffffffffffffff1916148061057757507f5b5e139f000000000000000000000000000000000000000000000000000000007bffffffffffffffffffffffffffffffffffffffffffffffffffffffff1916827bffffffffffffffffffffffffffffffffffffffffffffffffffffffff1916145b80610587575061058682610ff9565b5b9050919050565b60606000805461059d906122fe565b80601f01602080910402602001604051908101604052809291908181526020018280546105c9906122fe565b80156106165780601f106105eb57610100808354040283529160200191610616565b820191906000526020600020905b8154815290600101906020018083116105f957829003601f168201915b5050505050905090565b600061062b82611063565b61066a576040517f08c379a0000000000000000000000000000000000000000000000000000000008152600401610661906123a1565b60405180910390fd5b6004600083815260200190815260200160002060009054906101000a900473ffffffffffffffffffffffffffffffffffffffff169050919050565b60006106b0826108e3565b90508073ffffffffffffffffffffffffffffffffffffffff168373ffffffffffffffffffffffffffffffffffffffff1603610720576040517f08c379a000000000000000000000000000000000000000000000000000000000815260040161071790612433565b60405180910390fd5b8073ffffffffffffffffffffffffffffffffffffffff1661073f6110cf565b73ffffffffffffffffffffffffffffffffffffffff16148061076e575061076d816107686110cf565b610e6e565b5b6107ad576040517f08c379a00000000000000000000000000000000000000000000000000000000081526004016107a4906124c5565b60405180910390fd5b6107b783836110d7565b505050565b6107cd6107c76110cf565b82611190565b61080c576040517f08c379a000000000000000000000000000000000000000000000000000000000815260040161080390612557565b60405180910390fd5b61081783838361126e565b505050565b600061082860086114d4565b905061083460086114e2565b61083e82826114f8565b5050565b61085d83838360405180602001604052806000815250610d62565b505050565b670de0b6b3a76400008161087691906125a6565b34146108b7576040517f08c379a00000000000000000000000000000000000000000000000000000000081526004016108ae9061264c565b60405180910390fd5b60005b818110156108de576108cb8361081c565b80806108d69061266c565b9150506108ba565b505050565b6000806002600084815260200190815260200160002060009054906101000a900473ffffffffffffffffffffffffffffffffffffffff169050600073ffffffffffffffffffffffffffffffffffffffff168173ffffffffffffffffffffffffffffffffffffffff160361098b576040517f08c379a000000000000000000000000000000000000000000000000000000000815260040161098290612726565b60405180910390fd5b80915050919050565b60008073ffffffffffffffffffffffffffffffffffffffff168273ffffffffffffffffffffffffffffffffffffffff1603610a04576040517f08c379a00000000000000000000000000000000000000000000000000000000081526004016109fb906127b8565b60405180910390fd5b600360008373ffffffffffffffffffffffffffffffffffffffff1673ffffffffffffffffffffffffffffffffffffffff168152602001908152602001600020549050919050565b610a536110cf565b73ffffffffffffffffffffffffffffffffffffffff16610a71610c90565b73ffffffffffffffffffffffffffffffffffffffff1614610ac7576040517f08c379a0000000000000000000000000000000000000000000000000000000008152600401610abe90612824565b60405180910390fd5b670de0b6b3a764000081610adb91906125a6565b471015610b1d576040517f08c379a0000000000000000000000000000000000000000000000000000000008152600401610b1490612890565b60405180910390fd5b3373ffffffffffffffffffffffffffffffffffffffff166108fc670de0b6b3a764000083610b4b91906125a6565b9081150290604051600060405180830381858888f19350505050158015610b76573d6000803e3d6000fd5b5050565b610b826110cf565b73ffffffffffffffffffffffffffffffffffffffff16610ba0610c90565b73ffffffffffffffffffffffffffffffffffffffff1614610bf6576040517f08c379a0000000000000000000000000000000000000000000000000000000008152600401610bed90612824565b60405180910390fd5b610c006000611516565b565b60078054610c0f906122fe565b80601f0160208091040260200160405190810160405280929190818152602001828054610c3b906122fe565b8015610c885780601f10610c5d57610100808354040283529160200191610c88565b820191906000526020600020905b815481529060010190602001808311610c6b57829003601f168201915b505050505081565b6000600660009054906101000a900473ffffffffffffffffffffffffffffffffffffffff16905090565b606060018054610cc9906122fe565b80601f0160208091040260200160405190810160405280929190818152602001828054610cf5906122fe565b8015610d425780601f10610d1757610100808354040283529160200191610d42565b820191906000526020600020905b815481529060010190602001808311610d2557829003601f168201915b5050505050905090565b610d5e610d576110cf565b83836115dc565b5050565b610d73610d6d6110cf565b83611190565b610db2576040517f08c379a0000000000000000000000000000000000000000000000000000000008152600401610da990612557565b60405180910390fd5b610dbe84848484611748565b50505050565b6060610dcf82611063565b610e0e576040517f08c379a0000000000000000000000000000000000000000000000000000000008152600401610e0590612922565b60405180910390fd5b6000610e186117a4565b90506000815111610e385760405180602001604052806000815250610e66565b80610e42846117c4565b6007604051602001610e5693929190612a12565b6040516020818303038152906040525b915050919050565b6000600560008473ffffffffffffffffffffffffffffffffffffffff1673ffffffffffffffffffffffffffffffffffffffff16815260200190815260200160002060008373ffffffffffffffffffffffffffffffffffffffff1673ffffffffffffffffffffffffffffffffffffffff16815260200190815260200160002060009054906101000a900460ff16905092915050565b610f0a6110cf565b73ffffffffffffffffffffffffffffffffffffffff16610f28610c90565b73ffffffffffffffffffffffffffffffffffffffff1614610f7e576040517f08c379a0000000000000000000000000000000000000000000000000000000008152600401610f7590612824565b60405180910390fd5b600073ffffffffffffffffffffffffffffffffffffffff168173ffffffffffffffffffffffffffffffffffffffff1603610fed576040517f08c379a0000000000000000000000000000000000000000000000000000000008152600401610fe490612ab5565b60405180910390fd5b610ff681611516565b50565b60007f01ffc9a7000000000000000000000000000000000000000000000000000000007bffffffffffffffffffffffffffffffffffffffffffffffffffffffff1916827bffffffffffffffffffffffffffffffffffffffffffffffffffffffff1916149050919050565b60008073ffffffffffffffffffffffffffffffffffffffff166002600084815260200190815260200160002060009054906101000a900473ffffffffffffffffffffffffffffffffffffffff1673ffffffffffffffffffffffffffffffffffffffff1614159050919050565b600033905090565b816004600083815260200190815260200160002060006101000a81548173ffffffffffffffffffffffffffffffffffffffff021916908373ffffffffffffffffffffffffffffffffffffffff160217905550808273ffffffffffffffffffffffffffffffffffffffff1661114a836108e3565b73ffffffffffffffffffffffffffffffffffffffff167f8c5be1e5ebec7d5bd14f71427d1e84f3dd0314c0f7b2291e5b200ac8c7c3b92560405160405180910390a45050565b600061119b82611063565b6111da576040517f08c379a00000000000000000000000000000000000000000000000000000000081526004016111d190612b47565b60405180910390fd5b60006111e5836108e3565b90508073ffffffffffffffffffffffffffffffffffffffff168473ffffffffffffffffffffffffffffffffffffffff16148061122757506112268185610e6e565b5b8061126557508373ffffffffffffffffffffffffffffffffffffffff1661124d84610620565b73ffffffffffffffffffffffffffffffffffffffff16145b91505092915050565b8273ffffffffffffffffffffffffffffffffffffffff1661128e826108e3565b73ffffffffffffffffffffffffffffffffffffffff16146112e4576040517f08c379a00000000000000000000000000000000000000000000000000000000081526004016112db90612bd9565b60405180910390fd5b600073ffffffffffffffffffffffffffffffffffffffff168273ffffffffffffffffffffffffffffffffffffffff1603611353576040517f08c379a000000000000000000000000000000000000000000000000000000000815260040161134a90612c6b565b60405180910390fd5b61135e838383611924565b6113696000826110d7565b6001600360008573ffffffffffffffffffffffffffffffffffffffff1673ffffffffffffffffffffffffffffffffffffffff16815260200190815260200160002060008282546113b99190612c8b565b925050819055506001600360008473ffffffffffffffffffffffffffffffffffffffff1673ffffffffffffffffffffffffffffffffffffffff16815260200190815260200160002060008282546114109190612cbf565b92505081905550816002600083815260200190815260200160002060006101000a81548173ffffffffffffffffffffffffffffffffffffffff021916908373ffffffffffffffffffffffffffffffffffffffff160217905550808273ffffffffffffffffffffffffffffffffffffffff168473ffffffffffffffffffffffffffffffffffffffff167fddf252ad1be2c89b69c2b068fc378daa952ba7f163c4a11628f55a4df523b3ef60405160405180910390a46114cf838383611929565b505050565b600081600001549050919050565b6001816000016000828254019250508190555050565b61151282826040518060200160405280600081525061192e565b5050565b6000600660009054906101000a900473ffffffffffffffffffffffffffffffffffffffff16905081600660006101000a81548173ffffffffffffffffffffffffffffffffffffffff021916908373ffffffffffffffffffffffffffffffffffffffff1602179055508173ffffffffffffffffffffffffffffffffffffffff168173ffffffffffffffffffffffffffffffffffffffff167f8be0079c531659141344cd1fd0a4f28419497f9722a3daafe3b4186f6b6457e060405160405180910390a35050565b8173ffffffffffffffffffffffffffffffffffffffff168373ffffffffffffffffffffffffffffffffffffffff160361164a576040517f08c379a000000000000000000000000000000000000000000000000000000000815260040161164190612d61565b60405180910390fd5b80600560008573ffffffffffffffffffffffffffffffffffffffff1673ffffffffffffffffffffffffffffffffffffffff16815260200190815260200160002060008473ffffffffffffffffffffffffffffffffffffffff1673ffffffffffffffffffffffffffffffffffffffff16815260200190815260200160002060006101000a81548160ff0219169083151502179055508173ffffffffffffffffffffffffffffffffffffffff168373ffffffffffffffffffffffffffffffffffffffff167f17307eab39ab6107e8899845ad3d59bd9653f200f220920489ca2b5937696c318360405161173b9190611dc0565b60405180910390a3505050565b61175384848461126e565b61175f84848484611989565b61179e576040517f08c379a000000000000000000000000000000000000000000000000000000000815260040161179590612df3565b60405180910390fd5b50505050565b606060405180606001604052806036815260200161308f60369139905090565b60606000820361180b576040518060400160405280600181526020017f3000000000000000000000000000000000000000000000000000000000000000815250905061191f565b600082905060005b6000821461183d5780806118269061266c565b915050600a826118369190612e42565b9150611813565b60008167ffffffffffffffff811115611859576118586120e1565b5b6040519080825280601f01601f19166020018201604052801561188b5781602001600182028036833780820191505090505b5090505b60008514611918576001826118a49190612c8b565b9150600a856118b39190612e73565b60306118bf9190612cbf565b60f81b8183815181106118d5576118d4612ea4565b5b60200101907effffffffffffffffffffffffffffffffffffffffffffffffffffffffffffff1916908160001a905350600a856119119190612e42565b945061188f565b8093505050505b919050565b505050565b505050565b6119388383611b10565b6119456000848484611989565b611984576040517f08c379a000000000000000000000000000000000000000000000000000000000815260040161197b90612df3565b60405180910390fd5b505050565b60006119aa8473ffffffffffffffffffffffffffffffffffffffff16611ce9565b15611b03578373ffffffffffffffffffffffffffffffffffffffff1663150b7a026119d36110cf565b8786866040518563ffffffff1660e01b81526004016119f59493929190612f28565b6020604051808303816000875af1925050508015611a3157506040513d601f19601f82011682018060405250810190611a2e9190612f89565b60015b611ab3573d8060008114611a61576040519150601f19603f3d011682016040523d82523d6000602084013e611a66565b606091505b506000815103611aab576040517f08c379a0000000000000000000000000000000000000000000000000000000008152600401611aa290612df3565b60405180910390fd5b805181602001fd5b63150b7a0260e01b7bffffffffffffffffffffffffffffffffffffffffffffffffffffffff1916817bffffffffffffffffffffffffffffffffffffffffffffffffffffffff191614915050611b08565b600190505b949350505050565b600073ffffffffffffffffffffffffffffffffffffffff168273ffffffffffffffffffffffffffffffffffffffff1603611b7f576040517f08c379a0000000000000000000000000000000000000000000000000000000008152600401611b7690613002565b60405180910390fd5b611b8881611063565b15611bc8576040517f08c379a0000000000000000000000000000000000000000000000000000000008152600401611bbf9061306e565b60405180910390fd5b611bd460008383611924565b6001600360008473ffffffffffffffffffffffffffffffffffffffff1673ffffffffffffffffffffffffffffffffffffffff1681526020019081526020016000206000828254611c249190612cbf565b92505081905550816002600083815260200190815260200160002060006101000a81548173ffffffffffffffffffffffffffffffffffffffff021916908373ffffffffffffffffffffffffffffffffffffffff160217905550808273ffffffffffffffffffffffffffffffffffffffff16600073ffffffffffffffffffffffffffffffffffffffff167fddf252ad1be2c89b69c2b068fc378daa952ba7f163c4a11628f55a4df523b3ef60405160405180910390a4611ce560008383611929565b5050565b6000808273ffffffffffffffffffffffffffffffffffffffff163b119050919050565b6000604051905090565b600080fd5b600080fd5b60007fffffffff0000000000000000000000000000000000000000000000000000000082169050919050565b611d5581611d20565b8114611d6057600080fd5b50565b600081359050611d7281611d4c565b92915050565b600060208284031215611d8e57611d8d611d16565b5b6000611d9c84828501611d63565b91505092915050565b60008115159050919050565b611dba81611da5565b82525050565b6000602082019050611dd56000830184611db1565b92915050565b600081519050919050565b600082825260208201905092915050565b60005b83811015611e15578082015181840152602081019050611dfa565b83811115611e24576000848401525b50505050565b6000601f19601f8301169050919050565b6000611e4682611ddb565b611e508185611de6565b9350611e60818560208601611df7565b611e6981611e2a565b840191505092915050565b60006020820190508181036000830152611e8e8184611e3b565b905092915050565b6000819050919050565b611ea981611e96565b8114611eb457600080fd5b50565b600081359050611ec681611ea0565b92915050565b600060208284031215611ee257611ee1611d16565b5b6000611ef084828501611eb7565b91505092915050565b600073ffffffffffffffffffffffffffffffffffffffff82169050919050565b6000611f2482611ef9565b9050919050565b611f3481611f19565b82525050565b6000602082019050611f4f6000830184611f2b565b92915050565b611f5e81611f19565b8114611f6957600080fd5b50565b600081359050611f7b81611f55565b92915050565b60008060408385031215611f9857611f97611d16565b5b6000611fa685828601611f6c565b9250506020611fb785828601611eb7565b9150509250929050565b600080600060608486031215611fda57611fd9611d16565b5b6000611fe886828701611f6c565b9350506020611ff986828701611f6c565b925050604061200a86828701611eb7565b9150509250925092565b60006020828403121561202a57612029611d16565b5b600061203884828501611f6c565b91505092915050565b61204a81611e96565b82525050565b60006020820190506120656000830184612041565b92915050565b61207481611da5565b811461207f57600080fd5b50565b6000813590506120918161206b565b92915050565b600080604083850312156120ae576120ad611d16565b5b60006120bc85828601611f6c565b92505060206120cd85828601612082565b9150509250929050565b600080fd5b600080fd5b7f4e487b7100000000000000000000000000000000000000000000000000000000600052604160045260246000fd5b61211982611e2a565b810181811067ffffffffffffffff82111715612138576121376120e1565b5b80604052505050565b600061214b611d0c565b90506121578282612110565b919050565b600067ffffffffffffffff821115612177576121766120e1565b5b61218082611e2a565b9050602081019050919050565b82818337600083830152505050565b60006121af6121aa8461215c565b612141565b9050828152602081018484840111156121cb576121ca6120dc565b5b6121d684828561218d565b509392505050565b600082601f8301126121f3576121f26120d7565b5b813561220384826020860161219c565b91505092915050565b6000806000806080858703121561222657612225611d16565b5b600061223487828801611f6c565b945050602061224587828801611f6c565b935050604061225687828801611eb7565b925050606085013567ffffffffffffffff81111561227757612276611d1b565b5b612283878288016121de565b91505092959194509250565b600080604083850312156122a6576122a5611d16565b5b60006122b485828601611f6c565b92505060206122c585828601611f6c565b9150509250929050565b7f4e487b7100000000000000000000000000000000000000000000000000000000600052602260045260246000fd5b6000600282049050600182168061231657607f821691505b602082108103612329576123286122cf565b5b50919050565b7f4552433732313a20617070726f76656420717565727920666f72206e6f6e657860008201527f697374656e7420746f6b656e0000000000000000000000000000000000000000602082015250565b600061238b602c83611de6565b91506123968261232f565b604082019050919050565b600060208201905081810360008301526123ba8161237e565b9050919050565b7f4552433732313a20617070726f76616c20746f2063757272656e74206f776e6560008201527f7200000000000000000000000000000000000000000000000000000000000000602082015250565b600061241d602183611de6565b9150612428826123c1565b604082019050919050565b6000602082019050818103600083015261244c81612410565b9050919050565b7f4552433732313a20617070726f76652063616c6c6572206973206e6f74206f7760008201527f6e6572206e6f7220617070726f76656420666f7220616c6c0000000000000000602082015250565b60006124af603883611de6565b91506124ba82612453565b604082019050919050565b600060208201905081810360008301526124de816124a2565b9050919050565b7f4552433732313a207472616e736665722063616c6c6572206973206e6f74206f60008201527f776e6572206e6f7220617070726f766564000000000000000000000000000000602082015250565b6000612541603183611de6565b915061254c826124e5565b604082019050919050565b6000602082019050818103600083015261257081612534565b9050919050565b7f4e487b7100000000000000000000000000000000000000000000000000000000600052601160045260246000fd5b60006125b182611e96565b91506125bc83611e96565b9250817fffffffffffffffffffffffffffffffffffffffffffffffffffffffffffffffff04831182151516156125f5576125f4612577565b5b828202905092915050565b7f506c6561736520636865636b206d696e74696e6720636f737400000000000000600082015250565b6000612636601983611de6565b915061264182612600565b602082019050919050565b6000602082019050818103600083015261266581612629565b9050919050565b600061267782611e96565b91507fffffffffffffffffffffffffffffffffffffffffffffffffffffffffffffffff82036126a9576126a8612577565b5b600182019050919050565b7f4552433732313a206f776e657220717565727920666f72206e6f6e657869737460008201527f656e7420746f6b656e0000000000000000000000000000000000000000000000602082015250565b6000612710602983611de6565b915061271b826126b4565b604082019050919050565b6000602082019050818103600083015261273f81612703565b9050919050565b7f4552433732313a2062616c616e636520717565727920666f7220746865207a6560008201527f726f206164647265737300000000000000000000000000000000000000000000602082015250565b60006127a2602a83611de6565b91506127ad82612746565b604082019050919050565b600060208201905081810360008301526127d181612795565b9050919050565b7f4f776e61626c653a2063616c6c6572206973206e6f7420746865206f776e6572600082015250565b600061280e602083611de6565b9150612819826127d8565b602082019050919050565b6000602082019050818103600083015261283d81612801565b9050919050565b7f696e7375726666696369656e742062616c616e63650000000000000000000000600082015250565b600061287a601583611de6565b915061288582612844565b602082019050919050565b600060208201905081810360008301526128a98161286d565b9050919050565b7f4552433732314d657461646174613a2055524920717565727920666f72206e6f60008201527f6e6578697374656e7420746f6b656e0000000000000000000000000000000000602082015250565b600061290c602f83611de6565b9150612917826128b0565b604082019050919050565b6000602082019050818103600083015261293b816128ff565b9050919050565b600081905092915050565b600061295882611ddb565b6129628185612942565b9350612972818560208601611df7565b80840191505092915050565b60008190508160005260206000209050919050565b600081546129a0816122fe565b6129aa8186612942565b945060018216600081146129c557600181146129d657612a09565b60ff19831686528186019350612a09565b6129df8561297e565b60005b83811015612a01578154818901526001820191506020810190506129e2565b838801955050505b50505092915050565b6000612a1e828661294d565b9150612a2a828561294d565b9150612a368284612993565b9150819050949350505050565b7f4f776e61626c653a206e6577206f776e657220697320746865207a65726f206160008201527f6464726573730000000000000000000000000000000000000000000000000000602082015250565b6000612a9f602683611de6565b9150612aaa82612a43565b604082019050919050565b60006020820190508181036000830152612ace81612a92565b9050919050565b7f4552433732313a206f70657261746f7220717565727920666f72206e6f6e657860008201527f697374656e7420746f6b656e0000000000000000000000000000000000000000602082015250565b6000612b31602c83611de6565b9150612b3c82612ad5565b604082019050919050565b60006020820190508181036000830152612b6081612b24565b9050919050565b7f4552433732313a207472616e736665722066726f6d20696e636f72726563742060008201527f6f776e6572000000000000000000000000000000000000000000000000000000602082015250565b6000612bc3602583611de6565b9150612bce82612b67565b604082019050919050565b60006020820190508181036000830152612bf281612bb6565b9050919050565b7f4552433732313a207472616e7366657220746f20746865207a65726f2061646460008201527f7265737300000000000000000000000000000000000000000000000000000000602082015250565b6000612c55602483611de6565b9150612c6082612bf9565b604082019050919050565b60006020820190508181036000830152612c8481612c48565b9050919050565b6000612c9682611e96565b9150612ca183611e96565b925082821015612cb457612cb3612577565b5b828203905092915050565b6000612cca82611e96565b9150612cd583611e96565b9250827fffffffffffffffffffffffffffffffffffffffffffffffffffffffffffffffff03821115612d0a57612d09612577565b5b828201905092915050565b7f4552433732313a20617070726f766520746f2063616c6c657200000000000000600082015250565b6000612d4b601983611de6565b9150612d5682612d15565b602082019050919050565b60006020820190508181036000830152612d7a81612d3e565b9050919050565b7f4552433732313a207472616e7366657220746f206e6f6e20455243373231526560008201527f63656976657220696d706c656d656e7465720000000000000000000000000000602082015250565b6000612ddd603283611de6565b9150612de882612d81565b604082019050919050565b60006020820190508181036000830152612e0c81612dd0565b9050919050565b7f4e487b7100000000000000000000000000000000000000000000000000000000600052601260045260246000fd5b6000612e4d82611e96565b9150612e5883611e96565b925082612e6857612e67612e13565b5b828204905092915050565b6000612e7e82611e96565b9150612e8983611e96565b925082612e9957612e98612e13565b5b828206905092915050565b7f4e487b7100000000000000000000000000000000000000000000000000000000600052603260045260246000fd5b600081519050919050565b600082825260208201905092915050565b6000612efa82612ed3565b612f048185612ede565b9350612f14818560208601611df7565b612f1d81611e2a565b840191505092915050565b6000608082019050612f3d6000830187611f2b565b612f4a6020830186611f2b565b612f576040830185612041565b8181036060830152612f698184612eef565b905095945050505050565b600081519050612f8381611d4c565b92915050565b600060208284031215612f9f57612f9e611d16565b5b6000612fad84828501612f74565b91505092915050565b7f4552433732313a206d696e7420746f20746865207a65726f2061646472657373600082015250565b6000612fec602083611de6565b9150612ff782612fb6565b602082019050919050565b6000602082019050818103600083015261301b81612fdf565b9050919050565b7f4552433732313a20746f6b656e20616c7265616479206d696e74656400000000600082015250565b6000613058601c83611de6565b915061306382613022565b602082019050919050565b600060208201905081810360008301526130878161304b565b905091905056fe697066733a2f2f516d627168634175355168644535356538557a624b5939326336704552504353754d484d6562647241326d4673372fa2646970667358221220d4ce491a2869ff8892915dc78e4a2d17dc53727eda2ba166d415c5fc123a330964736f6c634300080e0033",
  "immutableReferences": {},
  "source": "// SPDX-License-Identifier: MIT\r\npragma solidity ^0.8.4;\r\n\r\nimport \"openzeppelin-solidity/contracts/token/ERC721/ERC721.sol\";\r\nimport \"openzeppelin-solidity/contracts/access/Ownable.sol\";\r\nimport \"openzeppelin-solidity/contracts/utils/Counters.sol\";\r\n\r\ncontract BrownieNft is ERC721, Ownable {\r\n    using Counters for Counters.Counter;\r\n    string public fileExtention = \".json\";\r\n    using Strings for uint256;\r\n\r\n    Counters.Counter private _tokenIdCounter;\r\n\r\n    constructor() ERC721(\"BrownieNft\", \"BFT\") {}\r\n\r\n    function _baseURI() internal pure override returns (string memory) {\r\n        return \"ipfs://QmbqhcAu5QhdE55e8UzbKY92c6pERPCSuMHMebdrA2mFs7/\";\r\n    }\r\n\r\n    function safeMint(address to) public  {\r\n        // require(msg.value == 1 * 10 ** 18 , \"Please check minting cost\");\r\n        uint256 tokenId = _tokenIdCounter.current();\r\n        _tokenIdCounter.increment();\r\n        _safeMint(to, tokenId);\r\n    }\r\n\r\n      function tokenURI(uint256 tokenId) public view virtual override returns (string memory) {\r\n        require(_exists(tokenId), \"ERC721Metadata: URI query for nonexistent token\");\r\n        string memory baseURI = _baseURI();\r\n        return bytes(baseURI).length > 0 ? string(abi.encodePacked(baseURI, tokenId.toString(), fileExtention)) : \"\";\r\n    }\r\n\r\n    function batchMint(address to, uint amount) public payable {\r\n        require(msg.value == amount * 10 ** 18 , \"Please check minting cost\");\r\n        for (uint i = 0; i < amount; i++) {\r\n            safeMint(to);\r\n        }\r\n    }\r\n\r\n    function withdrawKLAY(uint _balance) public payable onlyOwner {\r\n        require(address(this).balance >= _balance * 10 ** 18, \"insurfficient balance\");\r\n        payable(msg.sender).transfer(_balance * 10 ** 18);\r\n    }\r\n}",
  "sourcePath": "C:\\Users\\User\\Documents\\GitHub\\truffle\\test\\contracts\\Minting.sol",
  "compiler": {
    "name": "solc",
    "version": "0.8.14+commit.80d49f37.Emscripten.clang"
  },
  "schemaVersion": "3.4.7",
  "updatedAt": "2022-06-07T01:29:18.571Z",
  "devdoc": {
    "kind": "dev",
    "methods": {
      "approve(address,uint256)": {
        "details": "See {IERC721-approve}."
      },
      "balanceOf(address)": {
        "details": "See {IERC721-balanceOf}."
      },
      "getApproved(uint256)": {
        "details": "See {IERC721-getApproved}."
      },
      "isApprovedForAll(address,address)": {
        "details": "See {IERC721-isApprovedForAll}."
      },
      "name()": {
        "details": "See {IERC721Metadata-name}."
      },
      "owner()": {
        "details": "Returns the address of the current owner."
      },
      "ownerOf(uint256)": {
        "details": "See {IERC721-ownerOf}."
      },
      "renounceOwnership()": {
        "details": "Leaves the contract without owner. It will not be possible to call `onlyOwner` functions anymore. Can only be called by the current owner. NOTE: Renouncing ownership will leave the contract without an owner, thereby removing any functionality that is only available to the owner."
      },
      "safeTransferFrom(address,address,uint256)": {
        "details": "See {IERC721-safeTransferFrom}."
      },
      "safeTransferFrom(address,address,uint256,bytes)": {
        "details": "See {IERC721-safeTransferFrom}."
      },
      "setApprovalForAll(address,bool)": {
        "details": "See {IERC721-setApprovalForAll}."
      },
      "supportsInterface(bytes4)": {
        "details": "See {IERC165-supportsInterface}."
      },
      "symbol()": {
        "details": "See {IERC721Metadata-symbol}."
      },
      "tokenURI(uint256)": {
        "details": "See {IERC721Metadata-tokenURI}."
      },
      "transferFrom(address,address,uint256)": {
        "details": "See {IERC721-transferFrom}."
      },
      "transferOwnership(address)": {
        "details": "Transfers ownership of the contract to a new account (`newOwner`). Can only be called by the current owner."
      }
    },
    "version": 1
  },
  "userdoc": {
    "kind": "user",
    "methods": {},
    "version": 1
  }
}