{
  "contractName": "VoteContract",
  "abi": [
    {
      "anonymous": false,
      "inputs": [
        {
          "indexed": true,
          "internalType": "address",
          "name": "_voter",
          "type": "address"
        },
        {
          "indexed": true,
          "internalType": "address",
          "name": "_candidate",
          "type": "address"
        }
      ],
      "name": "Voting",
      "type": "event"
    },
    {
      "inputs": [
        {
          "internalType": "uint256",
          "name": "",
          "type": "uint256"
        }
      ],
      "name": "Candidates",
      "outputs": [
        {
          "internalType": "address",
          "name": "",
          "type": "address"
        }
      ],
      "stateMutability": "view",
      "type": "function",
      "constant": true
    },
    {
      "inputs": [
        {
          "internalType": "uint256",
          "name": "",
          "type": "uint256"
        }
      ],
      "name": "CandidatesVoteCount",
      "outputs": [
        {
          "internalType": "uint256",
          "name": "",
          "type": "uint256"
        }
      ],
      "stateMutability": "view",
      "type": "function",
      "constant": true
    },
    {
      "inputs": [],
      "name": "runningForCandidates",
      "outputs": [],
      "stateMutability": "payable",
      "type": "function",
      "payable": true
    },
    {
      "inputs": [
        {
          "internalType": "address",
          "name": "_candidate",
          "type": "address"
        }
      ],
      "name": "voting",
      "outputs": [],
      "stateMutability": "payable",
      "type": "function",
      "payable": true
    },
    {
      "inputs": [],
      "name": "checkCandidiates",
      "outputs": [
        {
          "internalType": "address[]",
          "name": "",
          "type": "address[]"
        }
      ],
      "stateMutability": "view",
      "type": "function",
      "constant": true
    },
    {
      "inputs": [
        {
          "internalType": "address",
          "name": "_candidate",
          "type": "address"
        }
      ],
      "name": "numberOfVotes",
      "outputs": [
        {
          "internalType": "uint256",
          "name": "",
          "type": "uint256"
        }
      ],
      "stateMutability": "view",
      "type": "function",
      "constant": true
    },
    {
      "inputs": [
        {
          "internalType": "address",
          "name": "_candidate",
          "type": "address"
        }
      ],
      "name": "getReward",
      "outputs": [],
      "stateMutability": "payable",
      "type": "function",
      "payable": true
    },
    {
      "inputs": [
        {
          "internalType": "address",
          "name": "_candidate",
          "type": "address"
        }
      ],
      "name": "VoteEnd",
      "outputs": [],
      "stateMutability": "payable",
      "type": "function",
      "payable": true
    }
  ],
  "bytecode": "0x60806040526001600460006101000a81548160ff021916908315150217905550600060055534801561003057600080fd5b50610f3a806100406000396000f3fe60806040526004361061007b5760003560e01c80638a51dcbc1161004e5780638a51dcbc1461012f5780638d5c96801461014b578063a800736314610167578063c00007b0146101a45761007b565b8063115a147f14610080578063249f31b8146100ab578063290e9212146100e857806384c0d82914610125575b600080fd5b34801561008c57600080fd5b506100956101c0565b6040516100a29190610ace565b60405180910390f35b3480156100b757600080fd5b506100d260048036038101906100cd9190610b2b565b61024e565b6040516100df9190610b67565b60405180910390f35b3480156100f457600080fd5b5061010f600480360381019061010a9190610b2b565b610272565b60405161011c9190610b91565b60405180910390f35b61012d6102b1565b005b61014960048036038101906101449190610bd8565b6103fa565b005b61016560048036038101906101609190610bd8565b610421565b005b34801561017357600080fd5b5061018e60048036038101906101899190610bd8565b610737565b60405161019b9190610b67565b60405180910390f35b6101be60048036038101906101b99190610bd8565b610783565b005b6060600280548060200260200160405190810160405280929190818152602001828054801561024457602002820191906000526020600020905b8160009054906101000a900473ffffffffffffffffffffffffffffffffffffffff1673ffffffffffffffffffffffffffffffffffffffff16815260200190600101908083116101fa575b5050505050905090565b6003818154811061025e57600080fd5b906000526020600020016000915090505481565b6002818154811061028257600080fd5b906000526020600020016000915054906101000a900473ffffffffffffffffffffffffffffffffffffffff1681565b6102b9610932565b6102f8576040517f08c379a00000000000000000000000000000000000000000000000000000000081526004016102ef90610c62565b60405180910390fd5b600460009054906101000a900460ff16610347576040517f08c379a000000000000000000000000000000000000000000000000000000000815260040161033e90610cce565b60405180910390fd5b662386f26fc10000341461035a57600080fd5b6006600081819054906101000a900461ffff168092919061037a90610d2b565b91906101000a81548161ffff021916908361ffff160217905550506002339080600181540180825580915050600190039060005260206000200160009091909190916101000a81548173ffffffffffffffffffffffffffffffffffffffff021916908373ffffffffffffffffffffffffffffffffffffffff160217905550565b6000600460006101000a81548160ff02191690831515021790555061041e81610783565b50565b600073ffffffffffffffffffffffffffffffffffffffff166000803373ffffffffffffffffffffffffffffffffffffffff1673ffffffffffffffffffffffffffffffffffffffff16815260200190815260200160002060009054906101000a900473ffffffffffffffffffffffffffffffffffffffff1673ffffffffffffffffffffffffffffffffffffffff16146104ee576040517f08c379a00000000000000000000000000000000000000000000000000000000081526004016104e590610da1565b60405180910390fd5b600460009054906101000a900460ff1661053d576040517f08c379a000000000000000000000000000000000000000000000000000000000815260040161053490610cce565b60405180910390fd5b67016345785d8a0000341461055157600080fd5b806000803373ffffffffffffffffffffffffffffffffffffffff1673ffffffffffffffffffffffffffffffffffffffff16815260200190815260200160002060006101000a81548173ffffffffffffffffffffffffffffffffffffffff021916908373ffffffffffffffffffffffffffffffffffffffff160217905550600160008273ffffffffffffffffffffffffffffffffffffffff1673ffffffffffffffffffffffffffffffffffffffff168152602001908152602001600020339080600181540180825580915050600190039060005260206000200160009091909190916101000a81548173ffffffffffffffffffffffffffffffffffffffff021916908373ffffffffffffffffffffffffffffffffffffffff1602179055506005600081548092919061068190610dc1565b91905055508073ffffffffffffffffffffffffffffffffffffffff163373ffffffffffffffffffffffffffffffffffffffff167f6491104836f13c96d56e095cdf163cd5636e356af1fd14d4853f3a83781abd9c60405160405180910390a36005600160008373ffffffffffffffffffffffffffffffffffffffff1673ffffffffffffffffffffffffffffffffffffffff168152602001908152602001600020805490500361073457610733816103fa565b5b50565b6000600160008373ffffffffffffffffffffffffffffffffffffffff1673ffffffffffffffffffffffffffffffffffffffff168152602001908152602001600020805490509050919050565b60001515600460009054906101000a900460ff161515146107d9576040517f08c379a00000000000000000000000000000000000000000000000000000000081526004016107d090610e55565b60405180910390fd5b6000600160008373ffffffffffffffffffffffffffffffffffffffff1673ffffffffffffffffffffffffffffffffffffffff16815260200190815260200160002080548060200260200160405190810160405280929190818152602001828054801561089a57602002820191906000526020600020905b8160009054906101000a900473ffffffffffffffffffffffffffffffffffffffff1673ffffffffffffffffffffffffffffffffffffffff1681526020019060010190808311610850575b5050505050905060005b815181101561092d578181815181106108c0576108bf610e75565b5b602002602001015173ffffffffffffffffffffffffffffffffffffffff166108fc8351476108ee9190610ed3565b9081150290604051600060405180830381858888f19350505050158015610919573d6000803e3d6000fd5b50808061092590610dc1565b9150506108a4565b505050565b600080600090505b6002805490508110156109d5573373ffffffffffffffffffffffffffffffffffffffff166002828154811061097257610971610e75565b5b9060005260206000200160009054906101000a900473ffffffffffffffffffffffffffffffffffffffff1673ffffffffffffffffffffffffffffffffffffffff16036109c25760009150506109db565b80806109cd90610dc1565b91505061093a565b50600190505b90565b600081519050919050565b600082825260208201905092915050565b6000819050602082019050919050565b600073ffffffffffffffffffffffffffffffffffffffff82169050919050565b6000610a3582610a0a565b9050919050565b610a4581610a2a565b82525050565b6000610a578383610a3c565b60208301905092915050565b6000602082019050919050565b6000610a7b826109de565b610a8581856109e9565b9350610a90836109fa565b8060005b83811015610ac1578151610aa88882610a4b565b9750610ab383610a63565b925050600181019050610a94565b5085935050505092915050565b60006020820190508181036000830152610ae88184610a70565b905092915050565b600080fd5b6000819050919050565b610b0881610af5565b8114610b1357600080fd5b50565b600081359050610b2581610aff565b92915050565b600060208284031215610b4157610b40610af0565b5b6000610b4f84828501610b16565b91505092915050565b610b6181610af5565b82525050565b6000602082019050610b7c6000830184610b58565b92915050565b610b8b81610a2a565b82525050565b6000602082019050610ba66000830184610b82565b92915050565b610bb581610a2a565b8114610bc057600080fd5b50565b600081359050610bd281610bac565b92915050565b600060208284031215610bee57610bed610af0565b5b6000610bfc84828501610bc3565b91505092915050565b600082825260208201905092915050565b7f4e6f6e76616c69642043616e6469646174650000000000000000000000000000600082015250565b6000610c4c601283610c05565b9150610c5782610c16565b602082019050919050565b60006020820190508181036000830152610c7b81610c3f565b9050919050565b7f566f746520616c726561647920656e6400000000000000000000000000000000600082015250565b6000610cb8601083610c05565b9150610cc382610c82565b602082019050919050565b60006020820190508181036000830152610ce781610cab565b9050919050565b7f4e487b7100000000000000000000000000000000000000000000000000000000600052601160045260246000fd5b600061ffff82169050919050565b6000610d3682610d1d565b915061ffff8203610d4a57610d49610cee565b5b600182019050919050565b7f596f7520616c726561647920766f746500000000000000000000000000000000600082015250565b6000610d8b601083610c05565b9150610d9682610d55565b602082019050919050565b60006020820190508181036000830152610dba81610d7e565b9050919050565b6000610dcc82610af5565b91507fffffffffffffffffffffffffffffffffffffffffffffffffffffffffffffffff8203610dfe57610dfd610cee565b5b600182019050919050565b7f566f74696e67206e6f742066696e697368656400000000000000000000000000600082015250565b6000610e3f601383610c05565b9150610e4a82610e09565b602082019050919050565b60006020820190508181036000830152610e6e81610e32565b9050919050565b7f4e487b7100000000000000000000000000000000000000000000000000000000600052603260045260246000fd5b7f4e487b7100000000000000000000000000000000000000000000000000000000600052601260045260246000fd5b6000610ede82610af5565b9150610ee983610af5565b925082610ef957610ef8610ea4565b5b82820490509291505056fea2646970667358221220451792167de5d87e3de26512ebb349d81af015a385f2e0f0de758e8b3b952e1064736f6c634300080d0033",
  "immutableReferences": {},
  "source": "// SPDX-License-Identifier: MIT\r\npragma solidity >=0.4.19 <0.9.0;\r\n\r\ncontract VoteContract {\r\n    event Voting(address indexed _voter, address indexed _candidate); //   \r\n    \r\n    mapping(address => address) Vote; //  =>     \r\n    mapping(address => address[]) VoteCounts; //  =>   ( length )\r\n\r\n    address[] public Candidates; //  \r\n    uint[] public CandidatesVoteCount; //   \r\n\r\n    bool VoteStatus = true; //  \r\n\r\n    uint256 VoterCounts = 0; //  \r\n    uint16 NumberOfCandidates; // \r\n    // address public owner; // contract \r\n\r\n    address ElectedCandidate; //  \r\n\r\n    // //  \r\n    // constructor() public {\r\n    //     owner = msg.sender; \r\n    // }\r\n\r\n    // //  \r\n    // modifier electionOfficer () { \r\n    //     require(owner == msg.sender, \"You are not Owner of Contract\");\r\n    //     _;\r\n    // }\r\n\r\n    //   \r\n    modifier alreadyVote () { \r\n        require(Vote[msg.sender] == 0x0000000000000000000000000000000000000000, \"You already vote\");\r\n        _;\r\n    }\r\n\r\n    //  \r\n    function whileArrayCheck() private view returns(bool) {\r\n        for (uint i = 0; i < Candidates.length; i++) {\r\n            if (Candidates[i] == msg.sender) {\r\n                return false;\r\n            }\r\n        }\r\n        return true;\r\n    }\r\n    modifier alreadyRunningFor () { \r\n        require(whileArrayCheck(), \"Nonvalid Candidate\");\r\n        _;\r\n    }\r\n\r\n    //   \r\n    modifier checkVoteStatus {\r\n        require(VoteStatus, \"Vote already end\");\r\n        _;\r\n    }\r\n\r\n    //  \r\n    function runningForCandidates () public payable alreadyRunningFor() checkVoteStatus() { \r\n        require(msg.value == 0.01 ether);\r\n        NumberOfCandidates++;\r\n        Candidates.push(msg.sender);\r\n    }\r\n\r\n    //  \r\n    function voting(address _candidate) public payable alreadyVote() checkVoteStatus() {\r\n        require(msg.value == 0.1 ether);\r\n        Vote[msg.sender] = _candidate;\r\n        VoteCounts[_candidate].push(msg.sender);\r\n        VoterCounts++;\r\n        emit Voting(msg.sender, _candidate);\r\n        if(VoteCounts[_candidate].length == 5) {\r\n            VoteEnd(_candidate);\r\n        }\r\n    }\r\n\r\n    //   \r\n    function checkCandidiates() public view returns(address[] memory) {\r\n        return Candidates;\r\n    }\r\n\r\n    //    \r\n    function numberOfVotes(address _candidate) public view returns(uint256) {\r\n        return VoteCounts[_candidate].length;\r\n    }\r\n\r\n    //       n\r\n    function getReward(address _candidate) public payable {\r\n        require(VoteStatus == false, \"Voting not finished\");\r\n        address[] memory Voters = VoteCounts[_candidate];\r\n        for(uint i = 0; i < Voters.length; i++) {\r\n            payable(Voters[i]).transfer(address(this).balance / Voters.length);\r\n            // Voters[i].transfer(address(this).balance / Voters.length);\r\n        }\r\n    }\r\n    \r\n    //      (,  ,   ,    )\r\n    function VoteEnd(address _candidate) public payable {\r\n        VoteStatus = false; //  \r\n        getReward(_candidate); //  \r\n        //   return\r\n    }\r\n\r\n    //   -> status      \r\n}",
  "sourcePath": "/home/njh/vote/truffle/contracts/voteContract.sol",
  "compiler": {
    "name": "solc",
    "version": "0.8.13+commit.abaa5c0e.Emscripten.clang"
  },
  "schemaVersion": "3.4.6",
  "updatedAt": "2022-06-02T01:48:46.416Z",
  "networkType": "ethereum",
  "devdoc": {
    "kind": "dev",
    "methods": {},
    "version": 1
  },
  "userdoc": {
    "kind": "user",
    "methods": {},
    "version": 1
  }
}